:100000000C942A000C9427020C9450020C94790250
:100010000C9435060C945E060C9447000C94470033
:100020000C9447000C9447000C9490060C94B9066D
:100030000C9447000C9447000C9447000C94470024
:100040000C9447000C9447000C9447000C94470014
:100050000C94470011241FBECFE5D8E0DEBFCDBF12
:1000600010E0A0E6B0E0EAE2FEE002C005900D92EA
:10007000A236B107D9F720E0A2E6B0E001C01D9298
:10008000A638B207E1F70E9494040C9413070C946D
:10009000000087B1806487B987B18F7787B987B14E
:1000A0008F7D87B986B1887F86B986B1846086B92D
:1000B00086B1806886B9089597B1907E97B997B157
:1000C000892B87B986B1806486B9349BFECF86B10F
:1000D000806186B96115710539F084B195B1FB0174
:1000E0009183808381E0089580E00895683008F06E
:1000F00078C04130C1F5813091F028F08230D9F0DC
:10010000833029F170C02AB381E090E002C0880FEB
:10011000991F6A95E2F7822B8ABB81E0089527B385
:1001200081E090E002C0880F991F6A95E2F7822B68
:1001300087BB81E0089524B381E090E002C0880F7E
:10014000991F6A95E2F7822B84BB81E0089521B361
:1001500081E090E002C0880F991F6A95E2F7822B38
:1001600081BB81E00895411140C0813099F028F0B1
:100170008230E9F0833041F13AC02AB381E090E067
:1001800002C0880F991F6A95E2F7809582238ABB87
:1001900081E0089527B381E090E002C0880F991FA5
:1001A0006A95E2F78095822387BB81E0089524B3A6
:1001B00081E090E002C0880F991F6A95E2F7809570
:1001C000822384BB81E0089521B381E090E002C0E6
:1001D000880F991F6A95E2F78095822381BB81E0A1
:1001E000089580E0089580E0089580E0089580E01B
:1001F0000895683008F078C04130C1F5813091F041
:1002000028F08230D9F0833029F170C02BB381E01F
:1002100090E002C0880F991F6A95E2F7822B8BBB92
:1002200081E0089528B381E090E002C0880F991F13
:100230006A95E2F7822B88BB81E0089525B381E0BF
:1002400090E002C0880F991F6A95E2F7822B85BB68
:1002500081E0089522B381E090E002C0880F991FE9
:100260006A95E2F7822B82BB81E00895411140C07C
:10027000813099F028F08230E9F0833041F13AC0C2
:100280002BB381E090E002C0880F991F6A95E2F7D6
:10029000809582238BBB81E0089528B381E090E0B4
:1002A00002C0880F991F6A95E2F78095822388BB68
:1002B00081E0089525B381E090E002C0880F991F86
:1002C0006A95E2F78095822385BB81E0089522B389
:1002D00081E090E002C0880F991F6A95E2F780954F
:1002E000822382BB81E0089580E0089580E0089534
:1002F00080E0089580E00895E199FECF9FBB8EBB1A
:100300006DBB8CB384608CBB8CB382608CBB089556
:10031000E199FECF9FBB8EBB8CB381608CBB8DB34C
:100320000895813081F120F0823009F457C068C00F
:100330008BB780648BBF613071F028F0623099F028
:100340006330C9F05FC085B78E7F85BF85B78D7F6D
:1003500085BF81E0089585B7816085BF85B78260DC
:1003600085BF81E0089585B78E7F85BF85B78260A0
:1003700085BF81E0089585B7816085BF85B78D7F92
:1003800085BF81E008958BB780688BBF613071F0C5
:1003900028F0623099F06330C9F036C085B78B7FA2
:1003A00085BF85B7877F85BF81E0089585B7846065
:1003B00085BF85B7886085BF81E0089585B78B7F4D
:1003C00085BF85B7886085BF81E0089585B7846063
:1003D00085BF85B7877F85BF81E008958BB7806231
:1003E0008BBF613019F0623031F010C084B7806487
:1003F00084BF81E0089584B78F7B84BF81E0089536
:1004000080E0089580E0089580E0089580E00895F8
:1004100061157105C1F0813051F018F0823069F03A
:1004200014C0709367006093660081E00895709334
:1004300065006093640081E00895709363006093A9
:10044000620081E0089580E0089580E008951F92A1
:100450000F920FB60F9211242F933F934F935F93F8
:100460006F937F938F939F93AF93BF93EF93FF937C
:10047000E0916600F0916700309709F00995FF91CF
:10048000EF91BF91AF919F918F917F916F915F910C
:100490004F913F912F910F900FBE0F901F90189585
:1004A0001F920F920FB60F9211242F933F934F93E9
:1004B0005F936F937F938F939F93AF93BF93EF93CC
:1004C000FF93E0916400F0916500309709F0099581
:1004D000FF91EF91BF91AF919F918F917F916F911C
:1004E0005F914F913F912F910F900FBE0F901F90F2
:1004F00018951F920F920FB60F9211242F933F93CE
:100500004F935F936F937F938F939F93AF93BF931B
:10051000EF93FF93E0916200F0916300309709F050
:100520000995FF91EF91BF91AF919F918F917F912D
:100530006F915F914F913F912F910F900FBE0F9050
:100540001F9018958FB780688FBF08950F931F93E2
:10055000CF93DF9300D0CDB7DEB78C011A8219821A
:10056000BE016F5F7F4F80E00E945C0029813A816D
:10057000A8E8B3E10E94040720E038E240E050E040
:100580000E94E206F80120830F900F90DF91CF9137
:100590001F910F91089580917A0090917B00A09116
:1005A0007C00B0917D000196A11DB11D80937A0061
:1005B00090937B00A0937C00B0937D0080917A00A3
:1005C00090917B00A0917C00B0917D008838934190
:1005D000A105B10561F410927F0010927E00109287
:1005E0007A0010927B0010927C0010927D0008959A
:1005F00080917500811104C081E080937500089599
:1006000080917500813069F41092750080937400B8
:1006100040E061E00E94F90040E060E081E00E947B
:10062000F900089510927A0010927B0010927C00DD
:1006300010927D006BEC72E080E00E9426068091B3
:100640007F00811107C080917500813019F480937B
:100650007F00089580917F00813079F4809160005F
:100660008B3458F4809160008B5F809360006091C0
:10067000600080E090E00E947C01089510927A0072
:1006800010927B0010927C0010927D006BEC72E067
:1006900080E00E94260680917E00811107C0809133
:1006A0007500813019F480937E00089580917E005A
:1006B000813079F480916000843258F0809160003C
:1006C0008550809360006091600080E090E00E941F
:1006D0007C01089520916E0030E08091600090E0F0
:1006E0000597281739070CF541E060E082E00E9489
:1006F000F90040E061E082E00E94F90081E080932F
:100700006D0080916800813031F441E062E082E068
:100710000E94F900089580916800811143C040E073
:1007200062E082E00E94F900089520916E0030E0BE
:100730008091600090E0059682179307D4F41092A0
:100740006D001092690010926A0010926B00109276
:100750006C0040E060E082E00E94F90041E061E06E
:1007600082E00E94F90041E062E082E00E94F9002C
:10077000089510926D001092690010926A00109214
:100780006B0010926C0040E062E082E00E94F90091
:1007900040E060E082E00E94F90040E061E082E039
:1007A0000E94F9000895809173008F5F8093730019
:1007B0002091610080916F0090917000A091710074
:1007C000B0917200820F911DA11DB11D80936F0029
:1007D00090937000A0937100B093720080917300A9
:1007E0008A30E1F460916F00709170008091710027
:1007F000909172002AE030E040E050E00E94E20672
:1008000020936E001092730010926F00109270008F
:1008100010927100109272000E946A0308958091F4
:10082000760090917700A0917800B09179000196C0
:10083000A11DB11D8093760090937700A09378005E
:10084000B093790080916D00813099F480916900B6
:1008500090916A00A0916B00B0916C000196A11D6F
:10086000B11D8093690090936A00A0936B00B093D0
:100870006C008091760090917700A0917800B09103
:100880007900883E9340A105B10571F481E690E0BE
:100890000E94A602109276001092770010927800C3
:1008A000109279000E94D3038091690090916A00B0
:1008B000A0916B00B0916C0080319742A105B10509
:1008C000B1F41092690010926A0010926B001092BD
:1008D0006C0080916800811104C081E08093680001
:1008E000089580916800813011F410926800089595
:1008F00080917F00811109C080917E00811105C027
:10090000809161000E940506089580917F008130EA
:1009100021F080917E00813031F40E94F1058091B8
:1009200060000E94050608956091600080E090E0FC
:100930000E947C010E943A0541E060E082E00E9452
:10094000760041E061E082E00E94760041E062E0F2
:1009500082E00E94760040E062E083E00E94760040
:1009600040E063E083E00E94760040E062E081E0E6
:100970000E94760041E062E083E00E94F90041E0DD
:1009800063E083E00E94F90041E062E081E00E94C0
:10099000F90062E080E00E94910162E081E00E9443
:1009A000910162E082E00E94910162E173E080E0E7
:1009B0000E9408026EE373E081E00E94080268EF83
:1009C00072E082E00E94080240E060E080E00E9465
:1009D00076000E9449000E94A2020E9468060E94BE
:1009E000140680917400813031F480E090E00E9420
:1009F00088018093600080917500882319F0813010
:100A000089F1EFCF1092730010926F001092700076
:100A1000109271001092720010926E0010926D0090
:100A20001092690010926A0010926B0010926C0094
:100A30001092680010927600109277001092780061
:100A40001092790040E062E082E00E94F90040E00C
:100A500060E082E00E94F90040E061E082E00E94F4
:100A6000F900BFCF6FE074E080E00E947A060E9438
:100A70007804B7CF41E064E080E00E94760041E076
:100A800065E080E00E94760041E066E080E00E9440
:100A9000760041E067E080E00E94760041E061E09E
:100AA00081E00E94760041E060E081E00E947600F3
:100AB00008959BB3682F617070E062957295707FA6
:100AC0007627607F76279F7E692B6BBB9BB381FB6C
:100AD000442740F950E0440F551F42955295507FEE
:100AE0005427407F54279F7D492B4BBB9BB382FBF0
:100AF000222720F930E00024369527950794369573
:100B000027950794322F202D9F7B292B2BBB2BB3AE
:100B100086958695869530E8839FC0011124922F93
:100B20009F77892B8BBB0895CF93C82F40E061E05E
:100B300081E00E94F90040E060E081E00E94F9005D
:100B4000C13031F441E061E081E00E94F90007C06A
:100B5000C23029F441E060E081E00E94F900CF91C9
:100B600008951F93CF93DF93DDEC8D9FD12D11243A
:100B70001D2F169516951695110F912F990F990FF8
:100B8000190F811B182FD695D695D695C0E023C096
:100B900081E00E949405812F0E9459058FE39CE912
:100BA0000197F1F700C0000082E00E9494058D2FAC
:100BB0000E9459058FE39CE90197F1F700C00000FE
:100BC00040E061E081E00E94F90040E060E081E007
:100BD0000E94F900CF5FC431D8F2DF91CF911F910D
:100BE000089540E060E081E00E94F90040E061E0AB
:100BF00081E00E94F9002FEF83ED90E321508040C7
:100C00009040E1F700C000000895CF93C82F8A30CC
:100C100018F00E94B10506C081E00E9494058C2F57
:100C20000E945905CF91089585B5826085BD85B52F
:100C30008E7F85BD85B5887F85BD85B5846085BD82
:100C40008AEF83BD89B7806889BF089561157105F2
:100C500041F0811108C0709381006093800081E0B1
:100C6000089580E0089580E008951F920F920FB6D6
:100C70000F9211242F933F934F935F936F937F9322
:100C80008F939F93AF93BF93EF93FF93E091800077
:100C9000F0918100309709F00995FF91EF91BF9194
:100CA000AF919F918F917F916F915F914F913F9104
:100CB0002F910F900FBE0F901F9018951F920F92BB
:100CC0000FB60F9211240F900FBE0F901F90189522
:100CD00083B7886083BF83B78F7B83BF83B7887FE9
:100CE00083BF83B7826083BF88EC8CBF89B7826083
:100CF00089BF08956115710579F0811106C070935F
:100D000085006093840081E00895813039F4709308
:100D1000830060938200089580E0089580E0089544
:100D20001F920F920FB60F9211242F933F934F9360
:100D30005F936F937F938F939F93AF93BF93EF9343
:100D4000FF93E0918400F0918500309709F00995B8
:100D5000FF91EF91BF91AF919F918F917F916F9193
:100D60005F914F913F912F910F900FBE0F901F9069
:100D700018951F920F920FB60F9211242F933F9345
:100D80004F935F936F937F938F939F93AF93BF9393
:100D9000EF93FF93E0918200F0918300309709F088
:100DA0000995FF91EF91BF91AF919F918F917F91A5
:100DB0006F915F914F913F912F910F900FBE0F90C8
:100DC0001F901895A1E21A2EAA1BBB1BFD010DC096
:100DD000AA1FBB1FEE1FFF1FA217B307E407F507EB
:100DE00020F0A21BB30BE40BF50B661F771F881FC7
:100DF000991F1A9469F760957095809590959B015D
:100E0000AC01BD01CF010895A29FB001B39FC00105
:100E1000A39F700D811D1124911DB29F700D811D26
:0A0E20001124911D0895F894FFCFEE
:020E2A003C5832
:00000001FF
